{
  "_format": "hh-sol-artifact-1",
  "contractName": "Upload",
  "sourceName": "contracts/Upload.sol",
  "abi": [
    {
      "inputs": [
        {
          "internalType": "address",
          "name": "_user",
          "type": "address"
        },
        {
          "internalType": "string",
          "name": "url",
          "type": "string"
        }
      ],
      "name": "add",
      "outputs": [],
      "stateMutability": "nonpayable",
      "type": "function"
    },
    {
      "inputs": [
        {
          "internalType": "address",
          "name": "user",
          "type": "address"
        }
      ],
      "name": "allow",
      "outputs": [],
      "stateMutability": "nonpayable",
      "type": "function"
    },
    {
      "inputs": [
        {
          "internalType": "address",
          "name": "user",
          "type": "address"
        }
      ],
      "name": "disallow",
      "outputs": [],
      "stateMutability": "nonpayable",
      "type": "function"
    },
    {
      "inputs": [
        {
          "internalType": "address",
          "name": "_user",
          "type": "address"
        }
      ],
      "name": "display",
      "outputs": [
        {
          "internalType": "string[]",
          "name": "",
          "type": "string[]"
        }
      ],
      "stateMutability": "view",
      "type": "function"
    },
    {
      "inputs": [],
      "name": "shareAccess",
      "outputs": [
        {
          "components": [
            {
              "internalType": "address",
              "name": "user",
              "type": "address"
            },
            {
              "internalType": "bool",
              "name": "access",
              "type": "bool"
            }
          ],
          "internalType": "struct Upload.Access[]",
          "name": "",
          "type": "tuple[]"
        }
      ],
      "stateMutability": "view",
      "type": "function"
    }
  ],
  "bytecode": "0x608060405234801561001057600080fd5b506108f3806100206000396000f3fe608060405234801561001057600080fd5b50600436106100575760003560e01c806336d6da551461005c578063a9ed9cb814610071578063bc8bef8114610084578063eb39113f146100a2578063ff9913e8146100c2575b600080fd5b61006f61006a36600461058d565b6100d5565b005b61006f61007f36600461064f565b61010a565b61008c6101e7565b6040516100999190610671565b60405180910390f35b6100b56100b036600461064f565b61026a565b60405161009991906106cb565b61006f6100d036600461064f565b6103d6565b6001600160a01b0382166000908152602081815260408220805460018101825590835291200161010582826107e7565b505050565b3360009081526001602090815260408083206001600160a01b03851684529091528120805460ff191690555b336000908152600260205260409020548110156101e35733600090815260026020526040902080546001600160a01b03841691908390811061017a5761017a6108a7565b6000918252602090912001546001600160a01b0316036101db573360009081526002602052604081208054839081106101b5576101b56108a7565b60009182526020909120018054911515600160a01b0260ff60a01b199092169190911790555b600101610136565b5050565b336000908152600260209081526040808320805482518185028101850190935280835260609492939192909184015b8282101561026157600084815260209081902060408051808201909152908401546001600160a01b0381168252600160a01b900460ff16151581830152825260019092019101610216565b50505050905090565b60606001600160a01b0382163314806102a657506001600160a01b038216600090815260016020908152604080832033845290915290205460ff165b6102ee5760405162461bcd60e51b8152602060048201526015602482015274596f7520646f6e277420686176652061636365737360581b604482015260640160405180910390fd5b6001600160a01b03821660009081526020818152604080832080548251818502810185019093528083529193909284015b828210156103cb57838290600052602060002001805461033e9061075d565b80601f016020809104026020016040519081016040528092919081815260200182805461036a9061075d565b80156103b75780601f1061038c576101008083540402835291602001916103b7565b820191906000526020600020905b81548152906001019060200180831161039a57829003601f168201915b50505050508152602001906001019061031f565b505050509050919050565b3360008181526001602081815260408084206001600160a01b038716808652908352818520805460ff19169094179093559383526003815283832091835252205460ff16156104d35760005b336000908152600260205260409020548110156101e35733600090815260026020526040902080546001600160a01b038416919083908110610466576104666108a7565b6000918252602090912001546001600160a01b0316036104cb57336000908152600260205260409020805460019190839081106104a5576104a56108a7565b60009182526020909120018054911515600160a01b0260ff60a01b199092169190911790555b600101610422565b336000818152600260209081526040808320815180830183526001600160a01b03878116808352600183870181815285548083018755958952878920945194909501805495511515600160a01b026001600160a81b03199096169490931693909317939093179055948452600383528184209084529091529020805460ff1916909117905550565b80356001600160a01b038116811461057257600080fd5b919050565b634e487b7160e01b600052604160045260246000fd5b600080604083850312156105a057600080fd5b6105a98361055b565b9150602083013567ffffffffffffffff808211156105c657600080fd5b818501915085601f8301126105da57600080fd5b8135818111156105ec576105ec610577565b604051601f8201601f19908116603f0116810190838211818310171561061457610614610577565b8160405282815288602084870101111561062d57600080fd5b8260208601602083013760006020848301015280955050505050509250929050565b60006020828403121561066157600080fd5b61066a8261055b565b9392505050565b602080825282518282018190526000919060409081850190868401855b828110156106be57815180516001600160a01b03168552860151151586850152928401929085019060010161068e565b5091979650505050505050565b6000602080830181845280855180835260408601915060408160051b87010192508387016000805b8381101561074f57888603603f1901855282518051808852835b81811015610728578281018a01518982018b0152890161070d565b508781018901849052601f01601f19169096018701955093860193918601916001016106f3565b509398975050505050505050565b600181811c9082168061077157607f821691505b60208210810361079157634e487b7160e01b600052602260045260246000fd5b50919050565b601f821115610105576000816000526020600020601f850160051c810160208610156107c05750805b601f850160051c820191505b818110156107df578281556001016107cc565b505050505050565b815167ffffffffffffffff81111561080157610801610577565b6108158161080f845461075d565b84610797565b602080601f83116001811461084a57600084156108325750858301515b600019600386901b1c1916600185901b1785556107df565b600085815260208120601f198616915b828110156108795788860151825594840194600190910190840161085a565b50858210156108975787850151600019600388901b60f8161c191681555b5050505050600190811b01905550565b634e487b7160e01b600052603260045260246000fdfea2646970667358221220f1438e8a577cea76e8425794ac2f1769b7d20f7236f5b4e0c6849d24d327efef64736f6c63430008170033",
  "linkReferences": {},
  "deployedLinkReferences": {}
}